S00E000053525F4543552E7372656335
S11300000C942A000C943C000C943C000C943C008E
S11300100C943C000C943C000C943C000C943C006C
S11300200C943C000C943C000C943C000C943C005C
S11300300C943C000C943C000C943C000C943C004C
S11300400C9475000C943C000C943C000C943C0003
S11300500C943C0011241FBECFE5D8E0DEBFCDBF19
S113006020E0A0E6B0E001C01D92A038B207E1F79D
S11300700E94AA020C94C7030C94000087B1806C00
S113008087B93D9A0895379A0895369A089597B195
S1130090907E97B9811104C087B1807E87B920C052
S11300A0813011F4389A1CC0823011F4399A18C086
S11300B0833019F4389A399A13C0843011F43A9A77
S11300C00FC0853019F4389A3A9A0AC0863019F468
S11300D03A9A399A05C0873019F4389A399A3A9A73
S11300E0349BFECF349885B108951F920F920FB6BA
S11300F00F9211242F933F934F935F936F937F93AA
S11301008F939F93AF93BF93EF93FF93E09160001E
S1130110F09161000995FF91EF91BF91AF919F918B
S11301208F917F916F915F914F913F912F910F909C
S11301300FBE0F901F901895813001F130F082307E
S1130140B1F1833009F44CC0089541110CC02AB3B5
S113015081E090E002C0880F991F6A95E2F78095CC
S113016082238ABB08952AB381E090E002C0880FFD
S1130170991F6A95E2F7822B8ABB089541110CC03E
S113018027B381E090E002C0880F991F6A95E2F7D7
S11301908095822387BB089527B381E090E002C055
S11301A0880F991F6A95E2F7822B87BB0895411146
S11301B00CC024B381E090E002C0880F991F6A95B7
S11301C0E2F78095822384BB089524B381E090E014
S11301D002C0880F991F6A95E2F7822B84BB0895A9
S11301E041110CC021B381E090E002C0880F991F37
S11301F06A95E2F78095822381BB089521B381E05B
S113020090E002C0880F991F6A95E2F7822B81BBA8
S11302100895813001F130F08230B1F1833009F476
S11302204CC0089541110CC02BB381E090E002C092
S1130230880F991F6A95E2F7809582238BBB0895F6
S11302402BB381E090E002C0880F991F6A95E2F712
S1130250822B8BBB089541110CC028B381E090E040
S113026002C0880F991F6A95E2F78095822388BBA4
S1130270089528B381E090E002C0880F991F6A9521
S1130280E2F7822B88BB089541110CC025B381E0AD
S113029090E002C0880F991F6A95E2F78095822347
S11302A085BB089525B381E090E002C0880F991FB3
S11302B06A95E2F7822B85BB089541110CC022B3E5
S11302C081E090E002C0880F991F6A95E2F780955B
S11302D0822382BB089522B381E090E002C0880F9C
S11302E0991F6A95E2F7822B82BB089582B984EC48
S11302F086BF089506B607FEFDCF81B1982F987F7B
S1130300807F803641F0983A41F0903B41F080374D
S113031089F782E0089580E0089581E0089581E0FE
S1130320089584EC86BF06B607FEFDCF81B1982FF1
S1130330987E903811F483B10895983811F483B1FC
S11303400895887F803A29F486B7806886BF8FEF46
S113035008958EEF089540E065E080E00E949C00DF
S113036041E065E083E00E949C000E943E000E9400
S113037043000E94450087E00E9447008E3130F41C
S113038041E065E083E00E940901089540E065E0F2
S113039083E00E940901089540E066E080E00E9445
S11303A09C0041E066E083E00E949C000E943E00C5
S11303B00E9443000E94450086E00E9447008E315F
S11303C030F441E066E083E00E940901089540E0D2
S11303D066E083E00E940901089540E067E080E060
S11303E00E949C0041E067E083E00E949C000E9420
S11303F03E000E9443000E94450085E00E944700A1
S11304008E3130F441E067E083E00E9409010895F1
S113041040E067E083E00E9409010895CF9380E4FF
S113042090E00E94B203C82F80937A0081E490E0A8
S11304300E94B203C053C0937A0080538093790022
S1130440CC0F9C2F990F990FC90F8C0F80936400C8
S113045082E490E00E94B203C82F8093630083E497
S113046090E00E94B203C053C09363008053809312
S11304707E00CC0F9C2F990F990FC90F8C0F80937E
S11304807B0084E490E00E94B203C82F80937F0035
S113049085E490E00E94B203C053C0937F00805370
S11304A080936200CC0F9C2F990F990FC90F8C0F6A
S11304B080937C000E943E000E9443000E944500FD
S11304C080E00E94470090916400981730F441E066
S11304D064E082E00E94090105C040E064E082E03B
S11304E00E9409010E943E000E9443000E944500B0
S11304F083E00E94470090917B00981730F441E01C
S113050063E082E00E94090105C040E063E082E00C
S11305100E9409010E943E000E9443000E9445007F
S113052082E00E94470090917C00981730F441E0EB
S113053062E082E00E94090105C040E062E082E0DE
S11305400E9409010E94AB010E94CC010E94ED01AE
S1130550CF91089540E060E080E00E949C0040E07C
S113056063E080E00E949C0040E062E080E00E9442
S11305709C0041E062E082E00E949C0041E063E074
S113058082E00E949C0041E064E082E00E949C00C2
S113059080E490E00E94B203C82F80937A0081E443
S11305A090E00E94B203C053C0937A0080538093BA
S11305B07900CC0F9C2F990F990FC90F8C0F809342
S11305C0640082E490E00E94B203C82F8093630029
S11305D083E490E00E94B203C053C093630080534D
S11305E080937E00CC0F9C2F990F990FC90F8C0F0D
S11305F080937B0084E490E00E94B203C82F809330
S11306007F0085E490E00E94B203C053C0937F0052
S1130610805380936200CC0F9C2F990F990FC90FC0
S11306208C0F80937C0080E20E9476012FEF83ED93
S113063090E3215080409040E1F700C000000E9408
S11306407A0180937D00882321F0853009F484C0E9
S113065086C0C5E6D0E009E710E00E9491018993C5
S11306602FE788E391E0215080409040E1F700C0FB
S113067000000C171D0789F780916800883309F082
S11306806BC0C5E6D0E06D8160937A008E81809363
S1130690790080E490E00E94BA036091790081E4DB
S11306A090E00E94BA0380917A00805380937A008C
S11306B090917900905390937900880F282F220FFE
S11306C0220F820F980F909364006F8160936300F0
S11306D0888580937E0082E490E00E94BA03609152
S11306E07E0083E490E00E94BA038091630080530B
S11306F08093630090917E00905390937E00880FC6
S1130700282F220F220F820F980F90937B00698568
S113071060937F008A858093620084E490E00E9465
S1130720BA036091620085E490E00E94BA0380916C
S11307307F00805380937F00909162009053909348
S11307406200880F282F220F220F820F980F909398
S11307507C0085E080937D000E940E02FDCF0E9404
S11307600E026DCFE199FECF9FBB8EBBE09A992715
S11307708DB30895262FE199FECF9FBB8EBB2DBB71
S11307800FB6F894E29AE19A0FBE01960895F89490
S1050790FFCF95
S9030000FC
