S00E000052435F4543552E7372656345
S11300000C9473000C9490000C9490000C94900049
S11300100C9490000C9490000C9490000C9490001C
S11300200C9490000C9490000C9490000C9490000C
S11300300C9490000C9490000C9490000C949000FC
S11300400C9490000C9490000C9490000C949000EC
S11300500C949000A20794079407940794079407BC
S113006094079407940794079407940794079407B4
S1130070AE07BA07C607E107FC070808240B160BEE
S1130080160B160B160B160B160B2F0B160B160B4B
S1130090160B160B160B160B3A0B450B500B6B0B72
S11300A0860B910BD80BCA0BCA0BCA0BCA0BCA0B13
S11300B0CA0BE30BEE0BF90B140C2F0C3A0C620C6D
S11300C0540C540C540C540C540C540C540C540C2C
S11300D0540C540C540C540C540C6D0C780C830CB0
S11300E09E0CB90CC40C11241FBECFE5D8E0DEBFB2
S11300F0CDBF11E0A0E6B0E0E2E0FCE102C0059073
S11301000D92A43FB107D9F721E0A4EFB1E001C0FB
S11301101D92A43FB207E1F70E949F040C94FF0DC7
S11301200C940000813001F130F08230B1F1833061
S113013009F44CC0089541110CC02AB381E090E049
S113014002C0880F991F6A95E2F7809582238ABBC3
S113015008952AB381E090E002C0880F991F6A9540
S1130160E2F7822B8ABB089541110CC027B381E0CA
S113017090E002C0880F991F6A95E2F78095822368
S113018087BB089527B381E090E002C0880F991FD0
S11301906A95E2F7822B87BB089541110CC024B302
S11301A081E090E002C0880F991F6A95E2F780957C
S11301B0822384BB089524B381E090E002C0880FB9
S11301C0991F6A95E2F7822B84BB089541110CC0F4
S11301D021B381E090E002C0880F991F6A95E2F78D
S11301E08095822381BB089521B381E090E002C011
S11301F0880F991F6A95E2F7822B81BB089581309D
S113020001F130F08230B1F1833009F44CC008952B
S113021041110CC02BB381E090E002C0880F991FFC
S11302206A95E2F7809582238BBB08952BB381E016
S113023090E002C0880F991F6A95E2F7822B8BBB6E
S1130240089541110CC028B381E090E002C0880FEA
S1130250991F6A95E2F78095822388BB089528B395
S113026081E090E002C0880F991F6A95E2F7822B23
S113027088BB089541110CC025B381E090E002C011
S1130280880F991F6A95E2F78095822385BB0895AC
S113029025B381E090E002C0880F991F6A95E2F7C8
S11302A0822B85BB089541110CC022B381E090E0FC
S11302B002C0880F991F6A95E2F78095822382BB5A
S11302C0089522B381E090E002C0880F991F6A95D7
S11302D0E2F7822B82BB0895813081F028F08230CE
S11302E0B9F08330F9F027C089B390E002C0959546
S11302F087956A95E2F7982F91701DC086B390E0B8
S113030002C0959587956A95E2F7982F917013C06E
S113031083B390E002C0959587956A95E2F7982F8C
S1130320917009C080B390E002C0959587956A9555
S1130330E2F7982F9170892F089541E060E082E000
S11303400E94920041E061E082E00E94920041E05C
S113035062E082E00E94920041E063E082E00E9459
S1130360920040E064E082E00E94920040E065E098
S113037082E00E94920040E066E082E00E949200E7
S113038041E064E082E00E94FF0041E065E082E039
S11303900E94FF0041E066E082E00E94FF000895B1
S11303A0CF93DF9340E060E082E00E94FF0041E0F1
S11303B061E082E00E94FF0041E062E082E00E948E
S11303C0FF0041E063E082E00E94FF0064E082E01D
S11303D00E946C01C82F65E082E00E946C01D82F56
S11303E066E082E00E946C01DD0F24E0829FC00180
S11303F011248D2B8C2B853031F0863009F4A7C065
S1130400833029F402C082E3A9C083E3A7C041E09A
S113041060E082E00E94FF0040E061E082E00E9430
S1130420FF0041E062E082E00E94FF0041E063E0FF
S113043082E00E94FF0064E082E00E946C01C82F09
S113044065E082E00E946C01D82F66E082E00E94A1
S11304506C01DD0F24E0829FC00111248D2B8C2BB5
S1130460853031F0863009F474C0833029F402C039
S113047085E374C086E372C041E060E082E00E94DC
S1130480FF0041E061E082E00E94FF0040E062E0A2
S113049082E00E94FF0041E063E082E00E94FF00EE
S11304A064E082E00E946C01C82F65E082E00E9453
S11304B06C01D82F66E082E00E946C01DD0F24E01D
S11304C0829FC00111248D2B8C2B853031F0863016
S11304D009F441C0833029F402C088E33FC089E3B2
S11304E03DC041E060E082E00E94FF0041E061E045
S11304F082E00E94FF0041E062E082E00E94FF008F
S113050040E063E082E00E94FF0064E082E00E9439
S11305106C01C82F65E082E00E946C01D82F66E070
S113052082E00E946C01DD0F24E0829FC00111244F
S11305308D2B8C2B853029F0863079F0833029F48B
S113054002C080E30BC083E209C08FEF07C081E3E0
S113055005C084E303C087E301C08AE2DF91CF9141
S113056008951F93CF93DF93182FC82FC295CF7090
S1130570D82FDF7040E061E081E00E94FF0040E09E
S113058063E081E00E94FF00C0FF06C041E064E038
S113059080E00E94FF0005C040E064E080E00E942B
S11305A0FF00C1FF06C041E065E080E00E94FF005B
S11305B005C040E065E080E00E94FF00C2FF06C085
S11305C041E066E080E00E94FF0005C040E066E094
S11305D080E00E94FF00C695C695C69531F041E0C3
S11305E067E080E00E94FF0005C040E067E080E033
S11305F00E94FF0041E063E081E00E94FF008FE978
S11306009FE00197F1F700C0000040E063E081E063
S11306100E94FF0010FF06C041E064E080E00E94F9
S1130620FF0005C040E064E080E00E94FF00D1FFCD
S113063006C041E065E080E00E94FF0005C040E0A4
S113064065E080E00E94FF00D2FF06C041E066E062
S113065080E00E94FF0005C040E066E080E00E9468
S1130660FF00D695D695D69531F041E067E080E05D
S11306700E94FF0005C040E067E080E00E94FF00A8
S113068041E063E081E00E94FF008FE99FE0019771
S1130690F1F700C0000040E063E081E00E94FF0049
S11306A0DF91CF911F9108951F93CF93DF93182F5C
S11306B0C82FC295CF70D82FDF7041E061E081E090
S11306C00E94FF0040E063E081E00E94FF00C0FF61
S11306D006C041E064E080E00E94FF0005C040E005
S11306E064E080E00E94FF00C1FF06C041E065E0D5
S11306F080E00E94FF0005C040E065E080E00E94C9
S1130700FF00C2FF06C041E066E080E00E94FF00F7
S113071005C040E066E080E00E94FF00C695C695F3
S1130720C69531F041E067E080E00E94FF0005C01B
S113073040E067E080E00E94FF0041E063E081E088
S11307400E94FF008FE99FE00197F1F700C00000CD
S113075040E063E081E00E94FF0010FF06C041E03A
S113076064E080E00E94FF0005C040E064E080E0B7
S11307700E94FF00D1FF06C041E065E080E00E94D6
S1130780FF0005C040E065E080E00E94FF00D2FF6A
S113079006C041E066E080E00E94FF0005C040E042
S11307A066E080E00E94FF00D695D695D69531F09C
S11307B041E067E080E00E94FF0005C040E067E0A0
S11307C080E00E94FF0041E063E081E00E94FF00BE
S11307D08FE99FE00197F1F700C0000040E063E07B
S11307E081E00E94FF00DF91CF911F9108952FE7D0
S11307F088E391E0215080409040E1F700C0000080
S113080041E064E080E00E94920041E065E080E025
S11308100E94920041E066E080E00E94920041E084
S113082067E080E00E94920041E061E081E00E9484
S1130830920041E062E081E00E94920041E063E0C6
S113084081E00E94920040E061E081E00E94FF00AC
S113085040E062E081E00E94FF0040E063E081E06C
S11308600E94FF0082E00E94B1028FE99FE001979D
S1130870F1F700C0000088E20E94B1028FE99FE016
S11308800197F1F700C000008CE00E94B1028FE9EB
S11308909FE00197F1F700C0000081E00E94B102DF
S11308A08FE99FE00197F1F700C000000895CF930E
S11308B0DF93EC018881882331F021960E94540350
S11308C089918111FBCFDF91CF9108951F93CF932D
S11308D0DF93EC01892B79F1162F812F0E94B1024D
S11308E09E01ADECBCEC0E94F00DAC015695479511
S11308F05695479556954795CA01880F991F440FF9
S1130900551F440F551F440F551F480F591FCE0143
S1130910841B950BAC010E94F00DEC01D695C79594
S1130920D695C795D695C79580E3840F0E94540346
S11309301150209791F6DF91CF911F9108950E9455
S1130940AF042FEF82E597E0215080409040E1F71B
S113095000C000000E94D00C80E090E00895EF9267
S1130960FF920F931F93CF93DF93CDB7DEB76997B1
S11309700FB6F894DEBF0FBECDBF86E0E0E6F0E030
S1130980DE01119601900D928A95E1F788E0EFEA75
S1130990F0E0DE011D9601900D928A95E1F785E065
S11309A0E7EBF0E0DE01559601900D928A95E1F7B0
S11309B00E94F7030E94D10D0E949D018E010F5FDA
S11309C01F4F7E0127E0E20EF11CF80181918F0197
S11309D00E94E20DFFE728E381E0F15020408040CF
S11309E0E1F700C00000E016F10679F78E01095F17
S11309F01F4F7E019DE0E90EF11C0E94E60DF801F7
S1130A0081938F01FFE728E381E0F150204080408B
S1130A10E1F700C000000E151F0579F78F818136BC
S1130A20E9F488858136D1F489858033B9F48A85DF
S1130A308033A1F48B85853389F48C85853371F4F7
S1130A4084E80E94B102CE010D960E94570486EC00
S1130A500E94B102CE0145960E94570469960FB6D2
S1130A60F894DEBF0FBECDBFDF91CF911F910F91E0
S1130A70FF90EF900895EF92FF920F931F93CF93FF
S1130A80DF93CDB7DEB764970FB6F894DEBF0FBE21
S1130A90CDBF84E1E6E6F0E0DE01119601900D920F
S1130AA08A95E1F781E00E94B10280E80E94B102D8
S1130AB089ED90E00E94570480EC0E94B1028FED12
S1130AC090E00E9457040E94D0018F3FE1F38033ED
S1130AD019F08133A1F025C02FE78AE196E0215077
S1130AE080409040E1F700C0000080E30E9454037E
S1130AF082EE90E00E94570480E38F8312C0EFE7F8
S1130B00FAE126E0E150F0402040E1F700C00000A7
S1130B1081E30E94540382EE90E00E94570481E333
S1130B208F830E94D0018F3FE1F3803319F081332A
S1130B30A1F025C08FE79AE1E6E081509040E040C3
S1130B40E1F700C0000080E30E94540387EE90E0C8
S1130B500E94570480E3888712C0FFE72AE186E0F9
S1130B60F15020408040E1F700C0000081E30E9482
S1130B70540387EE90E00E94570481E388870E9423
S1130B80D0018F3FE1F3803319F0813381F01DC030
S1130B909FE7EAE1F6E09150E040F040E1F700C061
S1130BA0000080E30E94540380E389870EC02FE78E
S1130BB08AE196E0215080409040E1F700C00000B7
S1130BC081E30E94540381E38987EFE7FAE126E099
S1130BD0E150F0402040E1F700C0000081E00E94B5
S1130BE0B10280E80E94B1028CEE90E00E945704AA
S1130BF080EC0E94B1028FED90E00E9457040E94A5
S1130C00D0018F3FE1F3803319F08133A1F025C087
S1130C108FE79AE1E6E081509040E040E1F700C0C0
S1130C20000080E30E94540382EE90E00E94570487
S1130C3080E38B8712C0FFE72AE186E0F150204071
S1130C408040E1F700C0000081E30E94540382EE7B
S1130C5090E00E94570481E38B870E94D0018F3F6C
S1130C60E1F3803319F08133A1F025C09FE7EAE175
S1130C70F6E09150E040F040E1F700C0000080E36E
S1130C800E94540387EE90E00E94570480E38C870F
S1130C9012C02FE78AE196E0215080409040E1F7AE
S1130CA000C0000081E30E94540387EE90E00E949C
S1130CB0570481E38C870E94D0018F3FE1F3803396
S1130CC019F0813381F01DC0EFE7FAE126E0E1502D
S1130CD0F0402040E1F700C0000080E30E9454038C
S1130CE080E38D870EC08FE79AE1E6E08150904063
S1130CF0E040E1F700C0000081E30E94540381E377
S1130D008D87FFE72AE186E0F15020408040E1F73B
S1130D1000C0000081E00E94B10280E80E94B1029C
S1130D2082EF90E00E94570480EC0E94B1028FEDA4
S1130D3090E00E9457040E94D0018F3FE1F380337A
S1130D4019F08133A1F025C09FE7EAE1F6E0915064
S1130D50E040F040E1F700C0000080E30E9454034B
S1130D6082EE90E00E94570480E38F8712C02FE741
S1130D708AE196E0215080409040E1F700C00000F5
S1130D8081E30E94540382EE90E00E94570481E3C1
S1130D908F870E94D0018F3FE1F3803319F08133B4
S1130DA0A1F025C0EFE7FAE126E0E150F040204051
S1130DB0E1F700C0000080E30E94540387EE90E056
S1130DC00E94570480E3888B12C08FE79AE1E6E023
S1130DD081509040E040E1F700C0000081E30E94B0
S1130DE0540387EE90E00E94570481E3888B0E94AD
S1130DF0D0018F3FE1F3803319F0813381F01DC0BE
S1130E00FFE72AE186E0F15020408040E1F700C08E
S1130E10000080E30E94540380E3898B0EC09FE7A7
S1130E20EAE1F6E09150E040F040E1F700C0000054
S1130E3081E30E94540381E3898B2FE78AE196E0E2
S1130E40215080409040E1F700C000008E010F5F08
S1130E501F4F7E01E5E1EE0EF11CF80181918F0137
S1130E600E94E20DFFE728E381E0F150204080403A
S1130E70E1F700C000000E151F0579F781E00E941C
S1130E80B10282E80E94B10288EF90E00E94570408
S1130E9084EC0E94B10284E091E00E9457049FEF29
S1130EA0E9E6F8E19150E040F040E1F700C00000CD
S1130EB00E94670764960FB6F894DEBF0FBECDBFDD
S1130EC0DF91CF911F910F91FF90EF900895CF93F1
S1130ED0DF93CDB7DEB76C970FB6F894DEBF0FBEC5
S1130EE0CDBF81E1EAE1F1E0DE01119601900D92BE
S1130EF08A95E1F78BE0EBE2F1E0DE015296019096
S1130F000D928A95E1F781E00E94B10280E80E9487
S1130F10B102CE0101960E94570480EC0E94B102F6
S1130F20CE0142960E9457040E94D0018F3FE1F304
S1130F3090E0FC01B397E431F105B0F7E65DFF4FB3
S1130F400C94EA0D2FE78AE196E02150804090400E
S1130F50E1F700C000000E94E90AE6CF2FE78AE12A
S1130F6096E0215080409040E1F700C000000E94CC
S1130F701408DACF2FE78AE196E0215080409040B0
S1130F80E1F700C000000E949508CECF2FE78AE168
S1130F9096E0215080409040E1F700C0000081E0DD
S1130FA00E94B1028BE091E00E9457042FE78AE18E
S1130FB096E0215080409040E1F700C000000E947C
S1130FC067072FE78AE196E0215080409040E1F7DF
S1130FD000C0000081E00E94B1028CEB90E00E940E
S1130FE057042FE78AE196E0215080409040E1F7D2
S1130FF000C000000E9467072FE78AE196E02150B5
S113100080409040E1F700C000000E94190A8CCF94
S11310102FE78AE196E0215080409040E1F700C03C
S113102000000E943B0580CFCF93DF93CDB7DEB79E
S11310306A970FB6F894DEBF0FBECDBF84E1EAE72E
S1131040F0E0DE01179601900D928A95E1F781E0B8
S11310500E94B10286E391E00E94570485EC0E944D
S1131060B10210E00E94D0018F3FE1F31630C8F4C2
S11310708332C9F08A32B1F3E1E0F0E0EC0FFD1FF6
S1131080E10FF11D80838AE20E9454032FE78AE175
S113109096E0215080409040E1F700C000001F5FBF
S11310A0E1CF8332F9F61630E9F681E00E94B1020D
S11310B0DE011196FE013C969E012E5E3F4F8D91FE
S11310C08193E217F307D9F78E01095F1F4F7E0161
S11310D0EBE1EE0EF11CF80181918F010E94E20D0B
S11310E0FFE728E381E0F15020408040E1F700C0B1
S11310F000000E151F0579F782E80E94B1028AE309
S113110091E00E94570484EC0E94B10284E091E0D3
S11311100E9457049FEFE9E6F8E19150E040F04067
S1131120E1F700C000000E946707CF93DF93CDB7BB
S1131130DEB764970FB6F894DEBF0FBECDBFFE01D5
S1131140319684E1DF011D928A95E9F781E689836E
S11311508A8380E38B8398E39C8396E39D838E83C9
S11311608F83888789878A878B8785E38C878D8798
S113117081E00E94B10289ED90E00E94570480EC66
S11311800E94B10286E491E00E9457046CEC85E170
S113119090E00E94660405E110E00E94D0018F3FB8
S11311A0E1F3823329F08833B1F08332B1F726C0FA
S11311B00E31110590F7BFE7EAE1F6E0B150E040E7
S11311C0F040E1F700C000000F5F1F4F6CECC80156
S11311D00E946604E2CF01311105F8F22FE78AE19B
S11311E096E0215080409040E1F700C0000001509B
S11311F011096CECC8010E946604CFCFAFE7BAE1D5
S1131200E6E0A150B040E040E1F700C000009801E2
S1131210ADECBCEC0E94F00D96958795969587955C
S11312209695879520E3280F2E839C01220F331F68
S1131230880F991F880F991F880F991F820F931F7A
S1131240081B190B005D0F8381E00E94B1028CEE34
S113125090E00E94570480EC0E94B10286E491E081
S11312600E9457046CEC85E190E00E94660405E15D
S113127010E00E94D0018F3FE1F3823329F08833DC
S1131280B1F08332B1F726C00E31110590F7FFE7B4
S11312902AE186E0F15020408040E1F700C00000E0
S11312A00F5F1F4F6CECC8010E946604E2CF01314E
S11312B01105F8F29FE7AAE1B6E09150A040B040D2
S11312C0E1F700C00000015011096CECC8010E9454
S11312D06604CFCFEFE7FAE126E0E150F04020408A
S11312E0E1F700C000009801ADECBCEC0E94F00DE9
S11312F096958795969587959695879520E3280FDB
S113130028879C01220F331F880F991F880F991F6C
S1131310880F991F820F931F081B190B005D098703
S113132081E00E94B10282EF90E00E94570480ECB9
S11313300E94B10286E491E00E9457046CEC85E1BE
S113134090E00E94660405E110E00E94D0018F3F06
S1131350E1F3823329F08833B1F08332B1F726C048
S11313600E31110590F78FE79AE1A6E08150904085
S1131370A040E1F700C000000F5F1F4F6CECC801F4
S11313800E946604E2CF01311105F8F2BFE7EAE1F9
S1131390F6E0B150E040F040E1F700C00000015039
S11313A011096CECC8010E946604CFCF2FE78AE1D3
S11313B096E0215080409040E1F700C00000980181
S11313C0ADECBCEC0E94F00D9695879596958795AB
S11313D09695879520E3280F2A879C01220F331FB7
S11313E0880F991F880F991F880F991F820F931FC9
S11313F0081B190B005D0B8781E00E94B1028E016E
S11314000F5F1F4F7E01A5E1EA0EF11CF8018191E7
S11314108F010E94E20DFFE728E381E0F1502040B4
S11314208040E1F700C000000E151F0579F70E9407
S11314306707CF93DF93CDB7DEB764970FB6F89401
S1131440DEBF0FBECDBF84E1EEE8F0E0DE01119611
S113145001900D928A95E1F781E00E94B10280E843
S11314600E94B10289ED90E00E94570480EC0E9432
S1131470B10281E591E00E9457040E94D0018F3FA0
S1131480E1F3803371F08133B9F42FE78AE196E018
S1131490215080409040E1F700C0000081E38F8339
S11314A00BC0EFE7FAE126E0E150F0402040E1F71D
S11314B000C0000080E38F8380E80E94B1028CEEBC
S11314C090E00E94570480EC0E94B10281E591E013
S11314D00E9457040E94D0018F3FE1F3803371F0E2
S11314E08133B9F48FE79AE1E6E081509040E0401F
S11314F0E1F700C0000081E389870BC0FFE72AE120
S113150086E0F15020408040E1F700C0000080E315
S1131510898780E80E94B10282EF90E00E9457041C
S113152080EC0E94B10281E591E00E9457040E9480
S1131530D0018F3FE1F3803369F08133B1F49FE749
S1131540EAE1F6E09150E040F040E1F700C000002D
S11315508B870BC02FE78AE196E0215080409040B2
S1131560E1F700C0000080E38B878E010F5F1F4FFF
S11315707E01E5E1EE0EF11CF80181918F010E94DC
S1131580E20DFFE728E381E0F15020408040E1F7DD
S113159000C000000E151F0579F781E00E94B1021A
S11315A082E80E94B10281E691E00E94570484EC33
S11315B00E94B10284E091E00E9457049FEFE9E6A3
S11315C0F8E19150E040F040E1F700C000000E94D3
S11315D06707CF93DF93CDB7DEB7A1970FB6F89423
S11315E0DEBF0FBECDBF81E1EFE6F1E0DE01119673
S11315F001900D928A95E1F780E1E0E8F1E0DE01E7
S1131600529601900D928A95E1F781E00E94B10211
S113161080E80E94B102CE0101960E94570480EC3A
S11316200E94B102CE0142960E9457040E94D0014A
S11316308F3FE1F390E0FC01B397E431F105B0F79B
S1131640E25CFF4F0C94EA0D2FE78AE196E021500B
S113165080409040E1F700C000000E949D0B2FE7FE
S11316608AE196E0215080409040E1F700C00000FC
S11316700E9467072FE78AE196E02150804090405E
S1131680E1F700C000000E9414082FE78AE196E009
S1131690215080409040E1F700C000000E9495086E
S11316A02FE78AE196E0215080409040E1F700C0A6
S11316B0000081E00E94B1028BE091E00E94570497
S11316C02FE78AE196E0215080409040E1F700C086
S11316D000000E9467072FE78AE196E021508040CE
S11316E09040E1F700C0000081E00E94B1028CEB61
S11316F090E00E9457042FE78AE196E02150804051
S11317009040E1F700C000000E9467072FE78AE1DC
S113171096E0215080409040E1F700C000000E9414
S1131720190A2FE78AE196E0215080409040E1F7C2
S113173000C000000E943B0579CFCF93DF93CDB763
S1131740DEB76E970FB6F894DEBF0FBECDBF80E153
S1131750E0E9F1E0DE01119601900D928A95E1F73E
S11317608EE0E0EAF1E0DE01519601900D928A9557
S1131770E1F781E00E94B10280E80E94B102CE014B
S113178001960E94570480EC0E94B102CE0141965A
S11317900E9457040E94D0018F3FE1F390E0FC01C6
S11317A0BA97ED30F105B0F7EE5AFF4F0C94EA0DFD
S11317B02FE78AE196E0215080409040E1F700C095
S11317C000000E94E90A2FE78AE196E02150804058
S11317D09040E1F700C000000E9414082FE78AE15E
S11317E096E0215080409040E1F700C000000E9444
S11317F095082FE78AE196E0215080409040E1F778
S113180000C0000081E00E94B1028BE091E00E94E0
S113181057042FE78AE196E0215080409040E1F799
S113182000C000000E9467072FE78AE196E021507C
S113183080409040E1F700C0000081E00E94B102C6
S11318408CEB90E00E9457042FE78AE196E0215048
S113185080409040E1F700C000000E9467072FE736
S11318608AE196E0215080409040E1F700C00000FA
S11318700E94190A2FE78AE196E0215080409040A7
S1131880E1F700C000000E943B0584CF80E80E947D
S1131890B1028EEA91E00E94570480EC0E94B102EA
S11318A08FEB91E00E9457040E94D0018F3FE1F337
S11318B090E0FC01B397E431F105B0F7E15AFF4F32
S11318C00C94EA0D2FE78AE196E021508040904085
S11318D0E1F700C000000E9467072FE78AE196E065
S11318E0215080409040E1F700C000000E9414089D
S11318F02FE78AE196E0215080409040E1F700C054
S113190000000E9495082FE78AE196E0215080406C
S11319109040E1F700C0000081E00E94B1028BE03A
S113192091E00E9457042FE78AE196E0215080401D
S11319309040E1F700C000000E9467072FE78AE1AA
S113194096E0215080409040E1F700C0000081E023
S11319500E94B1028CEB90E00E9457042FE78AE1C9
S113196096E0215080409040E1F700C000000E94C2
S113197067072FE78AE196E0215080409040E1F725
S113198000C000000E94190A2FE78AE196E0215066
S113199080409040E1F700C000000E943B0584CFE6
S11319A0EF92FF920F931F93CF93DF93CDB7DEB7E0
S11319B0EF970FB6F894DEBF0FBECDBF41E064E0F1
S11319C083E00E9492008EE0EFECF1E0DE011196DC
S11319D001900D928A95E1F78EE0EDEDF1E0DE01E4
S11319E01F9601900D928A95E1F788E0EBEEF1E005
S11319F0DE015D9601900D928A95E1F78DE0E2EAB1
S1131A00F0E0DE019B9601900D928A95E1F781E06A
S1131A100E94B102CE0101960E94570485EC0E94F7
S1131A20B10210E00E94D0018F3FE1F31630C8F4F8
S1131A308332C9F08A32B1F3E5E2F0E0EC0FFD1F26
S1131A40E10FF11D80838AE20E9454032FE78AE1AB
S1131A5096E0215080409040E1F700C000001F5FF5
S1131A60E1CF8332F9F61630E9F681E00E94B10243
S1131A70DE019596FE01F0969E012A5C3F4F8D9102
S1131A808193E217F307D9F78E01055D1F4F7E019D
S1131A90E8E3EE0EF11CF80181918F010E94E20D42
S1131AA0FFE728E381E0F15020408040E1F700C0E7
S1131AB00000E016F10679F78E01085C1F4F7801EB
S1131AC098E0E90EF11C0E94E60DF80181938F0164
S1131AD0FFE728E381E0F15020408040E1F700C0B7
S1131AE000000E151F0579F78AAD803309F04CC04C
S1131AF08BAD823309F045C08CAD8133F1F58DADEA
S1131B008033D9F50E94460C8DAD8133E9F582E826
S1131B100E94B102CE010F960E9457049FEFE4E3A6
S1131B20FCE09150E040F040E1F700C0000081E6A5
S1131B300E94E20D81E60E94E20D81E60E94E20D20
S1131B400E94D00C21C08CAD8133F1F48DAD803373
S1131B50D9F483E80E94B102CE014D960E94570445
S1131B602FEF82E597E0215080409040E1F700C0DC
S1131B70000081E00E94B10207C08CAD813321F4E2
S1131B80C3CF8BAD8433F9F2EF960FB6F894DEBF72
S1131B900FBECDBFDF91CF911F910F91FF90EF90BA
S1131BA008958FB780688FBF59985898579A569858
S1131BB05598549A539A529886E880BD10BC83E392
S1131BC089B908955D9BFECF8CB908955F9BFECFC4
S1131BD08CB10895EE0FFF1F0590F491E02D099448
S1131BE0A29FB001B39FC001A39F700D811D11245A
S1131BF0911DB29F700D811D1124911D0895F894BB
S1051C00FFCF10
S1131C026161303035356161306363313030303297
S1131C123030303330303030353561613033363046
S1131C223030303030303030303030303535616142
S1131C323039363130323033303030303030303089
S1131C4235356161303136303030303030353557EA
S1131C52656C636F6D6500486F6D65007365742014
S1131C62646174652F74696D6500766965772064B3
S1131C726174652F74696D6500526F6F6D31005226
S1131C82200020204720002020422000526F6F6D48
S1131C923200526F6F6D330052474220636F6E748D
S1131CA2726F6C00697320736574005669657720DE
S1131CB2646174652F74696D650031204368616ED7
S1131CC2676520506173736B6579003220412F433D
S1131CD22054656D7000536574204E657720506101
S1131CE273736B657900412F432054656D703A20FC
S1131CF2003020636C6F7365202031206F70656E35
S1131D0200446F6F727320636F6E74726F6C003372
S1131D12205669657720446174652F54696D6500A6
S1131D22342053657420446174652F54696D6500D1
S1131D323520446F6F727320436F6E74726F6C0040
S1131D42362052474220436F6E74726F6C004368B0
S1131D526F6F7365207572204F7074696F6E002AFD
S1131D62206261636B20202023206E657874004515
S1131D726E74657220706173736B65790077726F2C
S1131D826E6720706173736B6579004279652042D6
S1071D92796500006B
S9030000FC
