S00E000041445F4543552E7372656355
S11300000C942A000C9434000C9434000C943400A6
S11300100C9434000C9434000C9434000C9434008C
S11300200C9434000C9434000C9434000C9434007C
S11300300C9434000C9434000C9434000C9434006C
S11300400C9434000C9434000C9434000C9434005C
S11300500C94340011241FBECFE5D8E0DEBFCDBF21
S11300600E9408060C942A060C940000CF92DF929A
S1130070EF92FF920F931F93CF93DF9300D000D0A2
S113008000D0CDB7DEB780E20E940D040E94A8051F
S113009041E064E082E00E94330341E065E082E0F5
S11300A00E94330341E066E082E00E94330341E0B2
S11300B067E082E00E94330341E060E083E00E9455
S11300C0330341E061E083E00E94330341E062E0F6
S11300D083E00E94330341E063E083E00E94330342
S11300E041E064E083E00E94330341E065E083E0A3
S11300F00E94330341E066E083E00E94330341E061
S113010067E083E00E9433038FE097E20197F1F701
S113011000C000000E941104882319F0813011F1FD
S11301204BC08E010F5F1F4F6E0197E0C90ED11CAB
S113013078010E944804F70181937F01FFE728E3D7
S113014081E0F15020408040E1F700C00000EC1451
S1130150FD0479F7F80181918F010E940505C0160D
S1130160D106C1F78981813639F58A81813621F535
S11301708B81803309F58C818033F1F48D81853353
S1130180D9F48E818533C1F480EC0E9462048E011F
S11301900F5F1F4F7E01F7E0EF0EF11CF801819114
S11301A08F010E9428048FE097E20197F1F700C0C5
S11301B00000E016F10691F726960FB6F894DEBF1C
S11301C00FBECDBFDF91CF911F910F91FF90EF90A4
S11301D0DF90CF900895CF92DF92EF92FF920F932A
S11301E01F93CF93DF93CDB7DEB72C970FB6F89458
S11301F0DEBF0FBECDBF9E012F5F3F4F6E018DE06E
S1130200C80ED11C890180E490E07C01E21AF30A53
S1130210C701800F911F0E941106F80181938F017D
S1130220EC15FD05A9F78981803331F440E066E0DF
S113023082E00E94A00305C041E066E082E00E94E3
S1130240A0038A81803331F440E065E082E00E94BB
S1130250A00305C041E065E082E00E94A0038B8119
S1130260803331F440E064E082E00E94A00305C0E2
S113027041E064E082E00E94A0038C81803331F489
S113028040E067E082E00E94A00305C041E067E02F
S113029082E00E94A0038D81803331F440E060E06D
S11302A083E00E94A00305C041E060E083E00E9477
S11302B0A0038E81803331F440E061E083E00E944A
S11302C0A00305C041E061E083E00E94A0038F81A8
S11302D0803331F440E062E083E00E94A00305C073
S11302E041E062E083E00E94A0038885803331F41A
S11302F040E063E083E00E94A00305C041E063E0C6
S113030083E00E94A0038985803331F440E064E0F7
S113031083E00E94A00305C041E064E083E00E9402
S1130320A0038A85803331F440E065E083E00E94D5
S1130330A00305C041E065E083E00E94A0038B8533
S1130340803331F440E066E083E00E94A00305C0FE
S113035041E066E083E00E94A0038C85803331F4A1
S113036040E067E083E00E94A00305C041E067E04D
S113037083E00E94A0032C960FB6F894DEBF0FBE54
S1130380CDBFDF91CF911F910F91FF90EF90DF9040
S1130390CF900895CF92DF92EF92FF920F931F9325
S11303A0CF93DF93CDB7DEB729970FB6F894DEBFAE
S11303B00FBECDBF7C01FC018681898387818A833E
S11303C080858B8382858C8383858D8384858E83CE
S11303D086858F838785888780898987CE01019662
S11303E06C0103E410E0F60161916F01C8010E9401
S11303F019060F5F1F4F0C341105A9F7F701868109
S1130400803331F440E067E082E00E94A00305C03D
S113041041E067E082E00E94A003F7018781803316
S113042031F440E060E083E00E94A00305C041E0B5
S113043060E083E00E94A003F7018085803331F4FB
S113044040E061E083E00E94A00305C041E061E078
S113045083E00E94A003F7018285803331F440E0F9
S113046062E083E00E94A00305C041E062E083E013
S11304700E94A003F7018385803331F440E063E0F8
S113048083E00E94A00305C041E063E083E00E9492
S1130490A003F7018485803331F440E064E083E015
S11304A00E94A00305C041E064E083E00E94A00331
S11304B0F7018685803331F440E065E083E00E94F3
S11304C0A00305C041E065E083E00E94A003F701BA
S11304D08785803331F440E066E083E00E94A00326
S11304E005C041E066E083E00E94A003F701808933
S11304F0803331F440E067E083E00E94A00305C04C
S113050041E067E083E00E94A0030E9496022996DE
S11305100FB6F894DEBF0FBECDBFDF91CF911F9110
S11305200F91FF90EF90DF90CF900895CF92DF92DC
S1130530EF92FF920F931F93CF93DF93CDB7DEB764
S113054064970FB6F894DEBF0FBECDBF81E00E9462
S113055062040E941104811130C08E010F5F1F4F8D
S11305606E0125E1C20ED11C78010E944804F701F6
S113057081937F01FFE728E381E0F1502040804030
S1130580E1F700C00000CE14DF0479F7F80181918F
S11305908F010E940505C016D106C1F78C818933ED
S11305A019F0833631F009C0CE0101960E94EC02A5
S11305B004C0CE0101960E94CA0164960FB6F89455
S11305C0DEBF0FBECDBFDF91CF911F910F91FF9082
S11305D0EF90DF90CF9008950F931F93CF93DF9305
S11305E0EC0108851A856E8180E490E00E9419066A
S11305F0602F81E490E00E941906612F82E490E06C
S11306000E9419068E81803331F440E066E082E076
S11306100E94A00305C041E066E082E00E94A003BE
S11306208885803331F440E065E082E00E94A003D5
S113063005C041E065E082E00E94A0038A85803322
S113064031F440E064E082E00E94A00305C041E090
S113065064E082E00E94A0030E949602DF91CF91A1
S11306601F910F910895813001F130F08230B1F182
S1130670833009F44CC0089541110CC02AB381E0C1
S113068090E002C0880F991F6A95E2F78095822353
S11306908ABB08952AB381E090E002C0880F991FB5
S11306A06A95E2F7822B8ABB089541110CC027B3E7
S11306B081E090E002C0880F991F6A95E2F7809567
S11306C0822387BB089527B381E090E002C0880F9E
S11306D0991F6A95E2F7822B87BB089541110CC0DC
S11306E024B381E090E002C0880F991F6A95E2F775
S11306F08095822384BB089524B381E090E002C0F6
S1130700880F991F6A95E2F7822B84BB08954111E3
S11307100CC021B381E090E002C0880F991F6A9554
S1130720E2F78095822381BB089521B381E090E0B4
S113073002C0880F991F6A95E2F7822B81BB089546
S1130740813001F130F08230B1F1833009F44CC0D2
S1130750089541110CC02BB381E090E002C0880FD2
S1130760991F6A95E2F7809582238BBB08952BB37A
S113077081E090E002C0880F991F6A95E2F7822B0E
S11307808BBB089541110CC028B381E090E002C0F6
S1130790880F991F6A95E2F78095822388BB089594
S11307A028B381E090E002C0880F991F6A95E2F7B0
S11307B0822B88BB089541110CC025B381E090E0E1
S11307C002C0880F991F6A95E2F78095822385BB42
S11307D0089525B381E090E002C0880F991F6A95BF
S11307E0E2F7822B85BB089541110CC022B381E04E
S11307F090E002C0880F991F6A95E2F780958223E2
S113080082BB089522B381E090E002C0880F991F53
S11308106A95E2F7822B82BB089582B984EC86BF85
S1130820089506B607FEFDCF81B1982F987F807F8B
S1130830803641F0983A41F0903B41F0803789F797
S113084082E0089580E0089581E0089581E00895AC
S113085083B984EC86BF06B607FEFDCF81B1887FDD
S1130860803A29F486B7806886BF8FEF0895883B65
S113087059F0803C29F486B7806886BF8EEF0895CE
S1130880883C21F08CEF089580E008958DEF089561
S113089084EC86BF06B607FEFDCF81B1982F987E03
S11308A0903811F483B10895983811F483B1089500
S11308B0887F803A29F486B7806886BF8FEF0895D1
S11308C08EEF08951F93CF93DF93182FC82FC295EF
S11308D0CF70D82FDF7040E061E081E00E94A00378
S11308E040E063E081E00E94A003C0FF06C041E055
S11308F064E080E00E94A00305C040E064E080E082
S11309000E94A003C1FF06C041E065E080E00E94B0
S1130910A00305C040E065E080E00E94A003C2FFA0
S113092006C041E066E080E00E94A00305C040E00C
S113093066E080E00E94A003C695C695C69531F096
S113094041E067E080E00E94A00305C040E067E06A
S113095080E00E94A00341E063E081E00E94A003E4
S11309608FE99FE00197F1F700C0000040E063E0E9
S113097081E00E94A00310FF06C041E064E080E033
S11309800E94A00305C040E064E080E00E94A00350
S1130990D1FF06C041E065E080E00E94A00305C0ED
S11309A040E065E080E00E94A003D2FF06C041E081
S11309B066E080E00E94A00305C040E066E080E0BD
S11309C00E94A003D695D695D69531F041E067E014
S11309D080E00E94A00305C040E067E080E00E9440
S11309E0A00341E063E081E00E94A0038FE99FE05F
S11309F00197F1F700C0000040E063E081E00E944D
S1130A00A003DF91CF911F9108951F93CF93DF939C
S1130A10182FC82FC295CF70D82FDF7041E061E046
S1130A2081E00E94A00340E063E081E00E94A00313
S1130A30C0FF06C041E064E080E00E94A00305C05E
S1130A4040E064E080E00E94A003C1FF06C041E0F2
S1130A5065E080E00E94A00305C040E065E080E01E
S1130A600E94A003C2FF06C041E066E080E00E944D
S1130A70A00305C040E066E080E00E94A003C695A4
S1130A80C695C69531F041E067E080E00E94A0037E
S1130A9005C040E067E080E00E94A00341E063E01D
S1130AA081E00E94A0038FE99FE00197F1F700C065
S1130AB0000040E063E081E00E94A00310FF06C054
S1130AC041E064E080E00E94A00305C040E064E0EF
S1130AD080E00E94A003D1FF06C041E065E080E011
S1130AE00E94A00305C040E065E080E00E94A003EE
S1130AF0D2FF06C041E066E080E00E94A00305C08A
S1130B0040E066E080E00E94A003D695D695D69595
S1130B1031F041E067E080E00E94A00305C040E0BE
S1130B2067E080E00E94A00341E063E081E00E946E
S1130B30A0038FE99FE00197F1F700C0000040E0B7
S1130B4063E081E00E94A003DF91CF911F9108959B
S1130B502FE788E391E0215080409040E1F700C006
S1130B60000041E064E080E00E94330341E065E07E
S1130B7080E00E94330341E066E080E00E9433039A
S1130B8041E067E080E00E94330341E061E081E0FE
S1130B900E94330341E062E081E00E94330341E0BC
S1130BA063E081E00E94330340E061E081E00E9461
S1130BB0A00340E062E081E00E94A00340E063E023
S1130BC081E00E94A00382E00E9462048FE99FE01A
S1130BD00197F1F700C0000088E20E9462048FE9E7
S1130BE09FE00197F1F700C000008CE00E946204CE
S1130BF08FE99FE00197F1F700C0000081E00E94B7
S1130C0062048FE99FE00197F1F700C000000895A6
S1130C100E9436000E94EB000E94960280E090E061
S1130C200895E199FECF9FBB8EBBE09A99278DB3BF
S1130C300895262FE199FECF9FBB8EBBE09A0197C2
S1130C400DB2021631F02DBB0FB6F894E29AE19A78
S10B0C500FBE0895F894FFCFD4
S9030000FC
