:100000000C942A000C9447000C9447000C94470071
:100010000C9447000C9447000C9447000C94470044
:100020000C9447000C9447000C944E040C94270445
:100030000C9447000C9447000C9447000C94470024
:100040000C9447000C9447000C9447000C94470014
:100050000C94470011241FBECFE5D8E0DEBFCDBF12
:1000600010E0A0E6B0E0E2E5F9E002C005900D92F4
:10007000A837B107D9F720E0A8E7B0E001C01D928A
:10008000A139B207E1F70E9443010C94A7040C9434
:10009000000090917800E92FF0E0E758FF4F80834F
:1000A0009F5F909378000895813001F130F08230A5
:1000B000B1F1833009F44CC0089541110CC02AB34A
:1000C00081E090E002C0880F991F6A95E2F7809561
:1000D00082238ABB08952AB381E090E002C0880F92
:1000E000991F6A95E2F7822B8ABB089541110CC0D3
:1000F00027B381E090E002C0880F991F6A95E2F76C
:100100008095822387BB089527B381E090E002C0E9
:10011000880F991F6A95E2F7822B87BB08954111DA
:100120000CC024B381E090E002C0880F991F6A954B
:10013000E2F78095822384BB089524B381E090E0A8
:1001400002C0880F991F6A95E2F7822B84BB08953D
:1001500041110CC021B381E090E002C0880F991FCB
:100160006A95E2F78095822381BB089521B381E0EF
:1001700090E002C0880F991F6A95E2F7822B81BB3D
:10018000089511B880E280B9089594EA96BF06B642
:1001900007FEFDCF91B1987F983071F483B984E860
:1001A00086BF06B607FEFDCF81B1887F883131F06A
:1001B000803231F083E0089580E0089581E0089571
:1001C00082E0089594EA96BF06B607FEFDCF91B18E
:1001D000987F903171F483B984E886BF06B607FE34
:1001E000FDCF81B1887F803431F0883431F083E0F5
:1001F000089580E0089581E0089582E0089584E9FB
:1002000086BF06B604FCFDCF08951F93CF93DF93FE
:10021000182FC4EAD4E8C6BF06B607FEFDCF81B1E9
:10022000887F8830C1F713B9D6BF06B607FEFDCF69
:1002300081B1887F883119F00E94FF00ECCFDF91F7
:10024000CF911F91089583B984E886BF06B607FE53
:10025000FDCF81B1887F883221F0803321F082E0A8
:10026000089580E0089581E0089584EC86BF06B685
:1002700007FEFDCF83B1089584E886BF06B607FE6A
:10028000FDCF83B108950E944B0182E00E94A2023B
:1002900080E090E00895CF92DF92EF92FF920F936B
:1002A0001F93CF93DF93CDB7DEB72C970FB6F8949B
:1002B000DEBF0FBECDBF0E9475040E94C100CE01FB
:1002C00001966C017E0197E0E90EF11C86010E9407
:1002D0008A04F80181938F01FFE728E381E0F15060
:1002E00020408040E1F700C00000E016F10679F7F9
:1002F0008981813609F056C08A81813609F052C061
:100300008B81803309F04EC08C81803309F04AC064
:100310008D81853309F046C08E81853309F042C056
:1003200080E20E940501EFE0F7E23197F1F700C0AB
:100330000000F60181916F010E942301FFE728E38D
:1003400081E0F15020408040E1F700C00000CE1471
:10035000DF0479F781E20E94E200EFE0F7E23197F3
:10036000F1F700C000007E01F6E0EF0EF11C10E096
:10037000173028F40E943501F701808304C00E94E1
:100380003C01F7018083FFE728E381E0F150204042
:100390008040E1F700C000001F5F9FEFE91AF90AF3
:1003A000173031F70E94FF008F81813639F588853B
:1003B000813621F58985803309F58A858033F1F40A
:1003C0008B858533D9F48C858533C1F48E01095F23
:1003D0001F4F7E01EDE0EE0EF11CF80181918F01BF
:1003E0000E948604FFEF22E587E0F1502040804024
:1003F000E1F700C00000E016F10679F72C960FB681
:10040000F894DEBF0FBECDBFDF91CF911F910F914A
:10041000FF90EF90DF90CF9008950F931F93CF93AD
:10042000DF93EC018C010C5E1F4F89910E94490003
:10043000C017D107D1F7DF91CF911F910F91089588
:100440000F931F93CF93DF938C0180E20E94C5002E
:100450008FE097E20197F1F700C00000E8010C5E21
:100460001F4F89910E9423019FE728E381E091506B
:1004700020408040E1F700C00000C017D10789F795
:100480000E94FF000E944902DF91CF911F910F91BE
:100490000895EF92FF920F931F93CF93DF93CDB701
:1004A000DEB764970FB6F894DEBF0FBECDBF8E01E6
:1004B0000F5F1F4F7E0125E1E20EF11C0E948A04AE
:1004C000F80181938F01FFE728E381E0F15020409C
:1004D0008040E1F700C000000E151F0579F78C8100
:1004E000883381F028F4833341F0853381F01DC0D7
:1004F000893391F08336A9F018C0CE0101960E948D
:10050000BB0313C0CE0101960E94D5030EC0CE01DD
:1005100001960E940D0209C0CE0101960E94FE03C1
:1005200004C0CE0101960E94200264960FB6F89492
:10053000DEBF0FBECDBFDF91CF911F910F91FF9016
:10054000EF900895BF92CF92DF92EF92FF920F93B8
:100550001F93CF93DF93CDB7DEB7AE970FB6F89466
:10056000DEBF0FBECDBFB82E41E064E083E00E9445
:10057000540088E0E0E6F0E0DE01519601900D9233
:100580008A95E1F788E0E8E6F0E0DE01599601900F
:100590000D928A95E1F788E0E0E7F0E0DE019196C0
:1005A00001900D928A95E1F78E010F5F1F4F6E014A
:1005B00021E1C20ED11C78010E948A04F7018193C7
:1005C0007F01FFE728E381E0F15020408040E1F720
:1005D00000C00000CE14DF0479F79E01225F3F4F78
:1005E000F801838181938F012E173F07C9F77E01A0
:1005F000F9E2EF0EF11C00E410E0C8010E948E0445
:10060000F70181937F010F5F1F4F06341105A9F792
:100610008E81803351F59F81903339F598859033E1
:1006200021F59985903309F59A859033F1F49B85EE
:100630009033D9F48E010F5E1F4F7E01F9E1EF0E6A
:10064000F11CF80181918F010E948604FFE728E3E5
:1006500081E0F15020408040E1F700C00000E0164A
:10066000F10679F70E94490276C099A5891370C0F6
:100670009F818AA598132BC098858BA5981327C0B6
:1006800099858CA5981323C09A858DA598131FC0B2
:100690009B858EA598131BC08E010F5E1F4F7E0198
:1006A00099E1E90EF11CF80181918F010E94860405
:1006B000FFE728E381E0F15020408040E1F700C0EF
:1006C0000000E016F10679F70E94490244C0BB2001
:1006D00031F18E01075E1F4F7E0191E2E90EF11CA0
:1006E000F80181918F010E948604FFE728E381E0F1
:1006F000F15020408040E1F700C00000E016F10614
:1007000079F79FEFE4E3FCE09150E040F040E1F73F
:1007100000C000008FEF8B0D0E94A2021CC08E0152
:100720000F5D1F4F7E0129E2E20EF11CF80181915D
:100730008F010E948604FFE728E381E0F15020400A
:100740008040E1F700C000000E151F0579F703C0D7
:10075000B110BFCFE4CFAE960FB6F894DEBF0FBE98
:10076000CDBFDF91CF911F910F91FF90EF90DF9060
:10077000CF90BF9008950F931F93CF93DF938C0179
:100780000B5F1F4FC0E4D0E0F80161918F01CE01F3
:100790000E9496042196C634D105B1F70E94490201
:1007A000DF91CF911F910F9108950F931F93CF93D6
:1007B000DF938C0180E20E94C5008FE097E20197F1
:1007C000F1F700C00000E8010C5E1F4F89910E9404
:1007D00023019FE728E381E0915020408040E1F72A
:1007E00000C00000C017D10789F70E94FF000E94D7
:1007F0004902DF91CF911F910F9108950F931F939D
:10080000CF93DF938C0180E20E94C5008FE097E2D6
:100810000197F1F700C00000E8010C5E1F4F8991BD
:100820000E9423019FE728E381E09150204080400F
:10083000E1F700C00000C017D10789F70E94FF0050
:100840000E944902DF91CF911F910F9108951F924D
:100850000F920FB60F9211242F933F934F935F93F4
:100860006F937F938F939F93AF93BF93EF93FF9378
:10087000E0918F00F09190000995FF91EF91BF9169
:10088000AF919F918F917F916F915F914F913F9128
:100890002F910F900FBE0F901F9018951F920F92DF
:1008A0000FB60F9211242F933F934F935F936F9343
:1008B0007F938F939F93AF93BF93EF93FF93E091B9
:1008C0008D00F0918E000995FF91EF91BF91AF914E
:1008D0009F918F917F916F915F914F913F912F9158
:1008E0000F900FBE0F901F9018958FB780688FBF25
:1008F00059985898579A56985598549A539A529886
:1009000086E880BD10BC83E389B908955D9BFECF66
:100910008CB908955F9BFECF8CB10895E199FECF0D
:100920009FBB8EBBE09A99278DB30895262FE1993E
:10093000FECF9FBB8EBBE09A01970DB2021631F03D
:100940002DBB0FB6F894E29AE19A0FBE0895F89481
:02095000FFCFD7
:1009520061613032313035356161303231313535B6
:0809620061613034313035359C
:00000001FF
